:020000040800F2
:10000000F804002001010008031700086B15000820
:100010000117000889020008A51E00080000000062
:10002000000000000000000000000000D7190008D8
:10003000E102000800000000D5190008D9190008E5
:100040001B0100081B0100081B0100081B01000820
:100050001B0100081B0100081B0100081B01000810
:100060001B0100081B0100081B0100081B01000800
:100070001B0100081B0100081B0100081B010008F0
:100080001B0100081B0100081B0100081B010008E0
:100090001B0100081B0100081B0100081B010008D0
:1000A0001B0100081B0100081B0100081B010008C0
:1000B0001B0100081B0100081B0100081B010008B0
:1000C0001B0100081B0100081B0100081B010008A0
:1000D0001B010008851E00081B0100081B01000809
:1000E0001B0100081B0100081B010008DFF80CD0F1
:1000F00000F0B8F800480047E51E0008F8040020AA
:100100000648804706480047FEE7FEE7FEE7FEE7B1
:10011000FEE7FEE7FEE7FEE7FEE7FEE73B1A000824
:10012000ED000008D2B201E000F8012B491EFBD21D
:1001300070470022F6E710B513460A4604461946F2
:10014000FFF7F0FF204610BD30B480EA010202F054
:10015000004530F0004221F0004013D090B1C30DB3
:10016000D40DC2F31601C0F31600E41A41F40001E5
:1001700040F400027D34914201D3641C00E0490048
:10018000002C02DA30BC002070474FF4000000233E
:10019000914201D3891A034340084FEA4101F7D144
:1001A00051B1914202D14FF0004105E002D24FF02F
:1001B000010101E06FF0010103EBC450284430BCA1
:1001C00000F019B896230022114600F01DB820F067
:1001D0000040C10DC0F3160040F400007F2901DA91
:1001E00000207047962903DCC1F19601C840704792
:1001F0009639884070470029A8BF7047401C4900C5
:1002000008BF20F00100704710B4B0FA80FC00FA7B
:100210000CF050EA010404BF10BC704749B1CCF1A6
:10022000200421FA04F411FA0CF118BF0121214332
:100230000843A3EB0C01CB1D4FEA00614FEA1020ED
:1002400042BF002010BC704700EBC350104400298F
:10025000A4BF10BC7047401C490008BF20F001003B
:1002600010BC7047064C074D06E0E06840F0010303
:1002700094E8070098471034AC42F6D3FFF73AFFF2
:10028000642D0008842D0008FEE7000010B50A4C1C
:10029000002200EBC0006168C30060688842FCD0A7
:1002A00002D9A0EB010102E06FEA010101440A4416
:1002B00001469A42F1D310BD001000E006480168E3
:1002C00041F080710160054800214160016841F002
:1002D0000101016070470000FCED00E0001000E04B
:1002E000704772B6FEE710B590F82110002202297F
:1002F00005D00421816380F82020012010BD016811
:100300000B6823F00E030B6001680B6823F00103F8
:100310000B6090F84030C46B012101FA03F3636075
:1003200080F8211080F82020104610BD10B590F8FC
:1003300021100024022903D00421816301243DE01F
:1003400001680A6822F00E020A6001680A6822F059
:1003500001020A601A4A0168914201D1012121E09B
:10036000174A1432914201D110211BE0144A28325D
:10037000914201D1891515E0114A3C32914201D1D7
:1003800089140FE00E4A5032914202D14FF480316D
:1003900008E00B4A6432914202D14FF4801101E02F
:1003A0004FF08071064A083A5160012180F821100F
:1003B000002180F82010416B01B18847204610BD14
:1003C000080002402DE9F84FDFF8B8910024A9F1A8
:1003D000040B23460F2709F1040AABF1040EC9E010
:1003E0000125A5402A40AA427DD1674ED1F804C01C
:1003F000ACEB0608B44532D014DCBCF1030F3AD0A4
:1004000009DCBCF1000F2AD0BCF1010F1CD0BCF1FB
:10041000020F31D11DE0BCF1110F17D0BCF1120F4A
:100420002AD119E0B8F5881F19D006DCB8F5803F4D
:1004300015D0B8F5801F1FD111E0B8F5001F0ED000
:10044000B8F5041F18D10AE0CB6815E0CB681B1D76
:1004500012E0CB6808330FE0CB680C330CE08B68FC
:100460002BB1012B4FF0080303D0456104E00423B6
:1004700002E0056100E00023FF2A01D8064601E002
:1004800000F104064FEA840501D9A5F12005D6F84C
:10049000008007FA05FC28EA0C0803FA05F548EA8B
:1004A0000508C6F800804D68ED0062D5374DAE698D
:1004B00046F00106AE61AD6924F0030605F00105C2
:1004C0000095334D06EB050CDCF80850A607360FF7
:1004D00007FA06F825EA0805DFF8B880404503D199
:1004E0004FF0000817E044E0DFF8AC80404502D14F
:1004F0004FF001080FE0DFF8A480404502D14FF033
:10050000020808E0DFF89880404502D14FF0030868
:1005100001E04FF0040808FA06F848EA0508CCF8AC
:1005200008804D68D9F80060ED024D4601D51643AC
:1005300000E096432E604D68DAF80060AD02554643
:1005400001D5164300E096432E604D68DBF800604D
:10055000AD035D4601D5164300E096432E604D681D
:10056000DEF80060ED03754601D5164300E09643C2
:100570002E60641C0D682A46E5407FF431AFBDE86B
:10058000F88F000008040140000011100010024024
:100590000000014000080140000C01400010014033
:1005A000001401400AB1016170470904FBE7000033
:1005B000064810B54068FFF705FE0549FFF7C4FD82
:1005C000FFF705FE4FF47A71484310BD001000E0BC
:1005D0004054894C70B5040025D094F83D000025A6
:1005E00020B984F83C50204600F0B8F8242084F864
:1005F0003D002068016821F0010101602068016868
:1006000041F4004101602068016821F4004101606B
:1006100000F00AFA4D4A6168914201D84C4900E065
:100620004C49884201D2012070BD4B492368B0FB80
:10063000F1F15E6826F03F060E435E606368934208
:1006400006D94FF4967359434FF47A73B1FBF3F123
:100650002368491C1E6A26F03F063143196261680F
:10066000914210D84900401EB0FBF1F2521CC2F377
:100670000B02042A01D2042022E0B0FBF1F0401C5E
:10068000C0F30B001CE0A268F2B301EBC10303EB63
:100690000116431EB3FBF6F35B1C43F480431B05BA
:1006A00049D092B301EBC10202EB0111401EB0FB35
:1006B000F1F0401CC0F30B0040F4804040F40040D7
:1006C0002168CA694CF6FF739A431043C861D4E9A4
:1006D000071001432068026822F0C0021143016044
:1006E000D4E9030101432068826848F2FF339A434A
:1006F00011438160D4E9050108432168CA6822F0EA
:10070000FF021043C86001E00EE016E020680168B7
:1007100041F0010101602564202084F83D0025633B
:1007200084F83E50002070BD01EB4106431EB3FB30
:10073000F6F35B1CB3E70120C2E701EB4101401E69
:10074000B0FBF1F0401CC0F30B00B7E7A08601003E
:1007500080841E0000093D0040420F0010B586B0A5
:100760000021009101910291039100681349884290
:1007700022D1134CA06940F00800A061A06969462D
:1007800000F0080004904FF4407000901220019097
:10079000032003900B48FFF715FE0B48416841F01A
:1007A000E06141F002014160E06940F40010E06165
:1007B000E06900F40010049006B010BD0054004041
:1007C00000100240000C0140000001400248816816
:1007D000027811448160704700000020074810B57E
:1007E000016841F010010160032000F075F80F204E
:1007F00000F006F800F024F8002010BD00200240B0
:1008000070B50D4D04464FF47A712878B1FBF0F0C5
:100810000A490968B1FBF0F000F0DCFA48B9102C85
:1008200007D200222146501E00F036F800206C60EE
:1008300070BD012070BD0000000000200C000020F1
:100840000C4808B5816941F001018161816901F0BD
:1008500001010091C16941F08051C161C06900F09E
:10086000805000900448416821F0E06141F000713F
:10087000416008BD0010024000000140002809DB73
:1008800000F01F02012191404009800000F1E020AA
:10089000C0F8001170470000F0B40E4B1B680C4606
:1008A000C3F30223C3F10705042D00D90425191D44
:1008B000072901D2002300E0DB1E012606FA05F11C
:1008C000491E214099409E40761E16403143F0BC9F
:1008D00001F0E9BA0CED00E0064900F007020868F3
:1008E0004FF6FF03184040EA0220034A1043086015
:1008F000704700000CED00E00000FA052DE9F0471C
:100900000F46050061D0434E306800F00700B84242
:1009100009D2306820F0070038433060306800F0BA
:100920000700B84251D128683B4C810712D54007D7
:1009300003D5606840F4E06060602878000703D564
:10094000606840F4605060606068A96820F0F00062
:10095000084360602878C00728D06868012810D054
:100960002168022810D0890700292EDA616821F059
:10097000030101436160FFF71BFE804641F28839A5
:100980000DE021688903EFE78901EDE7FFF710FE2D
:10099000A0EB0801494502D90320BDE8F087606853
:1009A000696800F00C00B0EB810FEFD1306800F007
:1009B0000700B8420BD9306820F007003843306098
:1009C000306800F00700B84201D00120E5E7287840
:1009D000400705D56068E96820F4E060084360607E
:1009E0002878000706D56068296920F4605040EA3D
:1009F000C100606000F038F86168084AC1F3031173
:100A0000515CC8400649086006480068FFF7F8FED8
:100A10000020C2E700200240001002406A1F0008C8
:100A20000C000020040000200448054900684968C3
:100A3000044AC1F30221515CC84070470C000020F9
:100A4000001002407A1F0008044805490068496800
:100A5000044AC1F3C221515CC84070470C00002019
:100A6000001002407A1F00080E4A51680E4801F03B
:100A70000C03042B11D0082B0FD10C48C1F3834376
:100A8000C903C05C0AD55168084AC1F34041921EAF
:100A9000515C054A5043B0FBF1F0704704494843AC
:100AA000704700000010024000127A005A1F000830
:100AB00000093D002DE9F84F040070D02078C04DAA
:100AC000C00749D06868C0F38100012807D0686872
:100AD000C0F38100022809D16868C00306D52868E0
:100AE000800339D560680028E7D035E06068B0F54C
:100AF000803F0BD010B1B0F5A02F11D0286820F4A2
:100B000080302860286820F4802002E0286840F4C3
:100B100080302860606890B1FFF74AFD06460AE021
:100B2000286840F480202860F0E700BFFFF740FD10
:100B3000801B642873D828688003F7D50CE0FFF782
:100B400037FD064605E000BFFFF732FD801B642835
:100B5000F0D828688003F7D420789A4E80074FF0A9
:100B600001094FF0000839D5686810F00C0F07D064
:100B70006868C0F38100022809D16868C00306D400
:100B80002868800714D52069012808D110E0206961
:100B9000B0B1C6F80090FFF70BFD074605E00AE18B
:100BA000FFF706FDC01B0228C4D828688007F7D5C8
:100BB0002868616920F0F80040EAC10028600DE073
:100BC000C6F80080FFF7F4FC074604E0FFF7F0FCEE
:100BD000C01B022823D828688007F7D42078000794
:100BE0002CD57948A169D9B1C0F80090FFF7E0FC95
:100BF000074604E0FFF7DCFCC01B02280FD8686A38
:100C00008007F7D571484FF4FA510068B0FBF1F056
:100C1000009000BF0098411E0091FAD20EE080E0E3
:100C2000C0F80080FFF7C4FC074604E0FFF7C0FCF3
:100C3000C01B022875D8686A8007F7D4207840075F
:100C400060D5E8690027C00008D4E86940F080500A
:100C5000E861E869012700F0805000905C48016875
:100C6000C90513D40168834641F480710160FFF720
:100C70009FFC824606E000BFFFF79AFCA0EB0A004B
:100C800064284ED8DBF80000C005F5D5E0680128DF
:100C90000AD008B1052813D0286A20F00100286284
:100CA000286A20F0040002E0286A40F0010028626F
:100CB000E06841F2883B98B1FFF77AFC82460BE08E
:100CC000286A40F004002862EEE700BFFFF770FCDE
:100CD000A0EB0A0159455AD8286A8007F6D50CE0DE
:100CE000FFF766FC824605E0FFF762FCA0EB0A0115
:100CF00059454CD8286A8007F6D41FB1E86920F01E
:100D00008050E861E06988B36968C1F38101022914
:100D100044D00228C6F8608004D0FFF749FC04469E
:100D200038E034E0FFF744FC074604E0FFF740FCFE
:100D3000C01B02282BD828688001F7D4206AB0F5A0
:100D4000803F05D16868A16820F4003008436860DE
:100D5000D4E908010843696821F474110843686004
:100D6000C6F86090FFF724FC044606E025E000BFCB
:100D7000FFF71EFC001B022809D828688001F7D560
:100D80001BE000BFFFF714FC001B022802D9032060
:100D9000BDE8F88F28688001F4D40EE00128F7D070
:100DA0006868226A00F48031914204D1616A00F4DB
:100DB0007010884201D00120EAE70020E8E7000037
:100DC0000010024000004242800442420C00002019
:100DD0000070004010B5401EB0F1807F01D30120AB
:100DE00010BD4FF0E02460610F21601701F05BF847
:100DF0000020A06107202061002010BD70B590F890
:100E00003C20012A26D0012480F83C40022280F8B0
:100E10003D2003685A689D6822F070060A683243D4
:100E20005A600D4B02689A4208D0B2F1804F05D04B
:100E30000A4B9A4202D00A4B9A4204D1496825F0E3
:100E400080031943916080F83D40002180F83C10F8
:100E5000084670BD022070BD002C01400004004017
:100E60000008004010B5040003D094F83D0010B114
:100E700007E0012010BD002084F83C00204600F06F
:100E80001FF8022084F83D00211D206800F0D6FDE7
:100E9000012084F8460084F83E0084F83F0084F87E
:100EA000400084F8410084F8420084F8430084F84C
:100EB000440084F8450084F83D00002010BD000087
:100EC00008B50068B0F1804F08D10548C16941F00C
:100ED0000101C161C06900F00100009008BD00007F
:100EE0000010024070B5044690F83C00002501282F
:100EF00017D0012684F83C60022084F83D00206869
:100F0000826822F0770222F47F42826008685028CB
:100F100038D00DDC20284FD005DC90B3102811D13B
:100F20004AE0022070BD302846D040280AD13BE07C
:100F300060282FD070280DD0B0F5805F03D0B0F5B9
:100F4000005F12D0012584F83D60002084F83C0049
:100F5000284670BDCB68D1E90121206800F0B1FDC1
:100F60002068816841F0770109E0CB68D1E901216F
:100F7000206800F0A6FD2068816841F4804181600E
:100F8000E1E719E0CA684968206800F04FFE502187
:100F9000206806E0CA684968206800F058FE6021B1
:100FA000206800F098FDCEE7CA684968206800F024
:100FB0003DFE40212068F4E7226801461046F0E734
:100FC00000B585B000210091019102910391006864
:100FD000B0F1804F11D10A48816941F0040181616B
:100FE0008069694600F0040004900120009002200E
:100FF000019003900348FFF7E5F905B000BD00003C
:10100000001002400008014070B5044690F83C0012
:1010100000260D4601280FD0012084F83C006AB15B
:10102000042A1DD0082A2FD00C2A3FD001260020E8
:1010300084F83C00304670BD022070BD206800F08E
:1010400053FD2068816941F0080181612068816950
:1010500021F004018161206881692A69114311E04E
:10106000206800F069FD2068816941F400618161B8
:101070002068816921F480618161206881692A6921
:1010800041EA02218161D2E7206800F081FD2068F9
:10109000C16941F00801C1612068C16921F0040102
:1010A000C1612068C1692A69114311E0206800F01C
:1010B0009BFD2068C16941F40061C1612068C1697C
:1010C00021F48061C1612068C1692A6941EA022175
:1010D000C161ACE710B5040003D094F83D0010B135
:1010E00007E0012010BD002084F83C00204600F0FD
:1010F0001EF8022084F83D00211D206800F09EFCAF
:10110000012084F8460084F83E0084F83F0084F80B
:10111000400084F8410084F8420084F8430084F8D9
:10112000440084F8450084F83D00002010BD70475D
:1011300010B50446022249B104290ED0082913D063
:1011400094F84100012816D0012010BD94F83E000B
:101150000128F9D184F83E200FE094F83F000128DF
:10116000F2D184F83F2008E094F840000128EBD148
:1011700084F8402001E084F841200122206800F03A
:1011800093FC0F492068884203D1426C42F400422C
:1011900042642068884208D0B0F1804F05D00949E8
:1011A000884202D00849884204D1816801F00701D1
:1011B000062903D0016841F001010160002010BD43
:1011C000002C0140000400400008004070477047B8
:1011D000F8B5016804460868CA684B6910F00F0F3B
:1011E0004FF0000559D003F0010602F49077374321
:1011F00065D0C10705D0D10503D5616C41F001016F
:101200006164410705D5D90703D0616C41F0020143
:101210006164810705D5D90703D0616C41F00401F1
:101220006164010707D502F02001314303D0616CEE
:1012300041F008016164616C00293AD0800604D550
:10124000900602D5204600F043FD20684069616C9D
:10125000C0F38010090700D460B3204600F011FDF0
:1012600020684069400621D52068143050E8001FEE
:1012700021F0400140E80012002AF5D1E06BA8B14E
:101280006D494163E06BFFF751F8002811D0E06B26
:10129000416B01B0BDE8F040084783060FD59306C7
:1012A0000DD52046BDE8F84000F012BD2046FFF7FE
:1012B0008EFFF8BD2046FFF78AFF6564F8BD266BF8
:1012C0002023012E7CD1C6067AD5D60678D50868AB
:1012D0004868009048694FF00206400640D5E16B2F
:1012E000086840680004000CE8D0A28D8242E5D96D
:1012F000E085886920282DD020680C3050E8001F38
:1013000021F4807140E80012002AF5D120681430E1
:1013100050E8001F21F0010140E80012002AF5D139
:101320002068143050E8001F21F0400140E800120E
:10133000002AF5D184F84230256320680C3050E84B
:10134000001F21F0100140E80012002AF5D1E06BE7
:10135000FEF7C9FF6663A08DE18D401A81B22AE0D5
:10136000A08DE18D401A81B2E08D0028A6D0002921
:10137000A4D022680C3252E8000F20F4907042E8AA
:101380000007002FF5D12068143050E8002F22F01C
:10139000010240E80027002FF5D184F84230256390
:1013A00020680C3050E8002F22F0100240E80023A3
:1013B000002BF5D166632046FFF708FFF8BDFFE775
:1013C00005062BD5150629D594F841002128F5D11D
:1013D000A068B0F5805F01D12069B0B1206A411CDE
:1013E0002162216800784860E08C401E0004000CF7
:1013F000E084E3D12068C16821F08001C1602068E9
:10140000C16841F04001C160D8E7206A0088C0F39C
:1014100008004860206A801C2062E5E74006CDD5C0
:101420005006CBD5CA68204622F04002CA6084F834
:10143000413000F099F8C1E7731C000870B5040052
:1014400004D094F84100002510B106E0012070BDE1
:1014500084F84050204600F023F8242084F841000E
:101460002068C16821F40051C160204600F092FC60
:101470002068016921F4904101612068416921F0EF
:101480002A0141612068C16841F40051C16065646E
:10149000202084F8410084F842006563002070BD7C
:1014A00030B585B000240094019402940394006840
:1014B000184988422CD11848816941F480418161E2
:1014C000816901F480410491816941F004018161E5
:1014D0008069124D00F0040004904FF400700090F9
:1014E000022001900320039069462846FEF76AFF18
:1014F0002815CDE90004694628460294FEF762FFEC
:10150000002211462520FFF7C7F92520FFF7B6F97D
:1015100005B030BD00380140001002400008014015
:1015200090F84230202B01D00220704721B11AB12F
:101530000023036300F08ABC01207047084910B5FE
:1015400088420BD10748407800F0DCF805490122B9
:10155000BDE81040491C0248FFF7E2BF10BD000083
:10156000B0000020100000207047FEE770B586B084
:1015700000241D480094019402940394816941F071
:1015800020018161816901F020010491816941F0AC
:1015900004018161816901F004010491816941F0D4
:1015A000080181618069114E00F008000490012259
:1015B00018213046FEF7F6FF08200125CDE9000589
:1015C0000320CDE9024069463046FEF7FBFE1020BD
:1015D000CDE900050220CDE9024069463046FEF71C
:1015E000F1FE06B070BD000000100240000801408E
:1015F0000D4810B50B4901600C49416000214FF4C2
:1016000080428160C0E9031241618161C161016270
:10161000FEF7E0FF002803D0BDE81040FEF761BEF2
:1016200010BD00000054004014000020A0860100FE
:1016300010B58EB000240794089409940A940B9472
:101640001C2168460C94FEF774FD1E484FF0804143
:1016500001604721C0E9011444F61F61C0E9031489
:101660008461FFF7FFFB08B1FEF73BFE4FF48050AB
:10167000079007A91348FFF735FC08B1FEF731FEC4
:101680001048FFF727FD08B1FEF72BFE0B940BA9BE
:101690000C480C94FFF7B2FB08B1FEF722FE602065
:1016A000CDE9000402940022694606480494FFF73D
:1016B000ABFC08B1FEF715FE0248FFF781FC0EB047
:1016C00010BD0000680000200C4810B50A490160F8
:1016D0004FF4E1314160002181600C22C160C0E91A
:1016E00004128161C161FFF7A9FE002803D0BDE8A3
:1016F0001040FEF7F6BD10BD00380140B0000020DC
:10170000FEE7FEE770B50124084D312805D03228E8
:1017100005D0332809D1022202E0002200E0012294
:101720000121084600F00AF92C7070BD100000205D
:1017300070B500240021204600F0EEF800250020BE
:1017400000F037F96D1CEDB2802DF8D3641CE4B2C3
:10175000082CEFD370BD0000114810B5816986B028
:1017600041F00801816180690E4C00F0080004908E
:10177000112001904FF440700090032003906946BF
:101780002046FEF71FFE012211022046FEF70AFF47
:10179000012251022046FEF705FF06B010BD0000F1
:1017A00000100240000C01402DE9F047144E0024C7
:1017B00007464FF080084FF40079B51528FA04F277
:1017C0003A4049463046FEF7EDFE012229463046B2
:1017D000FEF7E8FE002229463046FEF7E3FE641CD1
:1017E000E4B2082CEAD3012229463046FEF7DAFE9D
:1017F00029463046BDE8F0470022FEF7D3BE000080
:10180000000C014070B501220B4D540221462846C0
:10181000FEF7C8FE0122160231462846FEF7C2FE38
:10182000002221462846FEF7BDFE31462846BDE887
:1018300070400022FEF7B6BE000C014070B50A4DA4
:101840004FF40074002221462846FEF7ABFE012229
:1018500011022846FEF7A6FE21462846BDE8704044
:101860000122FEF79FBE0000000C014010B50020D1
:101870004FF47A720021491C9142FCD3401C9042E3
:10188000F8D3FFF769FFAE2000F082F8D52000F012
:101890007FF8802000F07CF8A82000F079F83F2045
:1018A00000F076F8D32000F073F8002000F070F814
:1018B000402000F06DF8A12000F06AF8C82000F088
:1018C00067F8DA2000F064F8122000F061F8812057
:1018D00000F05EF8CF2000F05BF8D92000F058F857
:1018E000F12000F055F8DB2000F052F8302000F035
:1018F0004FF8A42000F04CF8A62000F049F88D2005
:1019000000F046F8142000F043F8AF2000F040F853
:10191000BDE81040FFF70CBF10B50C4640F0B0001A
:1019200000F036F8102040EA141000F031F804F00E
:101930000F00BDE8104000F02BB800002DE9F05F6B
:10194000C00040260024491EDFF840B09246A0F1B6
:10195000080901FB06F800BF09EB0400C0B208F05B
:10196000FF01FFF7D9FF04FB06B7002505EB4A206E
:10197000385C00F01EF86D1CEDB2B542F6D3641C65
:10198000E4B2082CE8D3BDE8F09F0000622700080D
:1019900010B50446FFF736FF7820FFF705FF00205B
:1019A000FFF702FF2046FFF7FFFEBDE81040FFF7FC
:1019B00045BF10B50446FFF725FF7820FFF7F4FE7A
:1019C0004020FFF7F1FE2046FFF7EEFEBDE8104095
:1019D000FFF734BF70477047FEF7F8BE30B58FB0E1
:1019E00028216846FEF7A5FB14210AA8FEF7A1FBF3
:1019F00001210804CDE9001000240294022504917D
:101A0000CDE907504FF4E01009906846FFF752F80F
:101A100008B172B6FEE70F20CDE90A054FF48060E9
:101A2000CDE90C4002210AA80E94FEF767FF0028BA
:101A300001D072B6FEE70FB030BD7047F0B5026856
:101A4000164B174C174D4FF08047984205D0B842BF
:101A500003D0A04201D0A84203D122F070064A6808
:101A60003243984205D0B84203D0A04201D0A842E8
:101A700003D122F44074CA6822434C6922F08002E8
:101A8000224302608A68C2620A688262984201D177
:101A90000969016301214161F0BD0000002C014092
:101AA000000400400008004010B501F01F030121B0
:101AB000046A99408C430462016A9A4011430162AE
:101AC00010BD10B5846842EA032224F47F440A431F
:101AD0002243826010BD826822F070020A4342F005
:101AE000070181607047000030B5036A026A22F086
:101AF000010202624268846924F073050C682C4379
:101B000023F002058B682B430A4DA8420BD123F02A
:101B10000805CB6822F440722B434D6923F004037F
:101B200015438A692A4342608461496841630362BC
:101B300030BD0000002C014030B5026A036A23F07A
:101B400010030362436884690D6824F4E64444EAA0
:101B500005248D6822F0200242EA05120B4DA842AE
:101B60000ED1CD6822F0800242EA05124D6923F4BD
:101B7000406343EA85038D6922F0400243EA85030E
:101B80004360846149688163026230BD002C01407A
:101B900030B5036A026A22F4807202624268C46944
:101BA00023F4007324F073050C682C438D6843EA1A
:101BB00005230C4DA8420ED1CD6823F4006343EAFF
:101BC00005234D6922F4405242EA05128D6923F43F
:101BD000806342EA05124260C4614968C1630362DE
:101BE00030BD0000002C014030B5046A026A22F4C6
:101BF000805202624268C3690D6823F4E64343EAF7
:101C000005238D6824F4005444EA0534064DA842A7
:101C100004D14D6922F4804242EA85124260C361D8
:101C200049680164046230BD002C014010B5036AAC
:101C3000046A24F001040462846924F0F00444EA94
:101C4000021423F00A020A438461026210BD10B537
:101C5000036A046A24F010040462846923F0A00378
:101C600024F4704444EA023243EA011182610162C1
:101C700010BD10B5406A0021C185C184FFF7A7FAE5
:101C800010BD01680C3151E8002F22F4907241E838
:101C90000023002BF5D10168143151E8002F22F008
:101CA000010241E80023002BF5D1016B012909D184
:101CB00001680C3151E8002F22F0100241E80023A6
:101CC000002BF5D1202180F84210002101637047DC
:101CD00008B590F84210222901D0022008BD826880
:101CE0004FF480539A4201D1016921B1816A9A422D
:101CF0001BD04AB10AE00268816A5268C2F3080246
:101D00000A80816A891C08E0026972B1026852681F
:101D100002F07F020A70816A491C8162C18D491EEE
:101D20000904090CC18503D01BE002685268F1E781
:101D30000168CA6822F02002CA600168CA6822F4F9
:101D40008072CA6001684A6922F001024A6120215A
:101D500080F8421000214163026B012A03D0FFF793
:101D6000EDFB002008BD016301680C3151E8002F34
:101D700022F0100241E80023002BF5D101680A6827
:101D8000D20602D50A6849680091818DFFF71EFAD4
:101D9000E7E7000070B5044600680169E26821F4D5
:101DA0004051114301612169A068084361690843FA
:101DB0002168CA6841F20C639A430243CA602068F2
:101DC0004169A26921F44071114341611E492068B3
:101DD000884202D1FEF738FE01E0FEF725FE00EB57
:101DE000C00101EB0012606864218000B2FBF0F3D7
:101DF000B3FBF1F36FF018067343B2FBF0F5B2FBDF
:101E0000F0F605EB8305322303EB0515B5FBF1F581
:101E1000B6FBF1F605F0F00505EB0615B2FBF0F6A2
:101E2000B2FBF0F0B0FBF1F06FF01802504306EB9C
:101E3000800003EB0010B0FBF1F0216800F00F0010
:101E40002844886070BD00000038014081628285AE
:101E5000C28500214164222180F84210016921B12C
:101E60000168CA6842F48072CA6001684A6942F037
:101E700001024A610068C16841F02001C160002090
:101E8000704700000148FFF7A3B90000B000002030
:101E9000012202490248FFF743BB00001100002065
:101EA000B0000020FEE70907090E002804DB00F15E
:101EB000E02080F80014704700F00F0000F1E020EF
:101EC00080F8141D704702E008C8121F08C1002ADC
:101ED000FAD170477047002001E001C1121F002AAB
:101EE000FBD17047FEF77AFCFFF778FDFFF73EFB6A
:101EF000FFF77EFBFFF79CFBFFF7E6FBFEF7DEF943
:101F0000FFF7B4FC00211148FFF712F9FFF7C0FFFB
:101F10000F4D104C012208212846FEF743FB0022FA
:101F200010212846FEF73EFB2046FEF7AFF90022BF
:101F300008212846FEF736FB012210212846FEF72D
:101F400031FB2046FEF7A2F9E4E70000680000201C
:101F50000008014020A10700010202030405060752
:101F600008090A0B0C0D0E0F1010000000000000F5
:101F70000000010203040607080900000000010236
:101F8000030400000000000000000000000000004A
:101F90000000000000F800000000000000333000E6
:101FA000000000100C06100C0600000000000000ED
:101FB000000040C07840C0784000043F04043F0463
:101FC0000400007088FC08300000001820FF211E6B
:101FD0000000F008F000E018000000211C031E21A2
:101FE0001E0000F00888700000001E21232419271D
:101FF000211010160E00000000000000000000007C
:102000000000000000E01804020000000007182093
:10201000400000020418E000000000402018070003
:102020000000404080F0804040000202010F0102A9
:102030000200000000F0000000000101011F01018A
:102040000100000000000000000080B070000000EF
:10205000000000000000000000000001010101017B
:10206000010100000000000000000030300000000E
:1020700000000000000080601804006018060100E5
:10208000000000E010080810E000000F10202010F1
:102090000F00001010F8000000000020203F20205A
:1020A00000000070080808887000003028242221F1
:1020B00030000030088888483000001820202011A7
:1020C0000E000000C02010F8000000070424243F88
:1020D000240000F808888808080000192120201131
:1020E0000E0000E0108888180000000F1120201159
:1020F0000E0000380808C83808000000003F000043
:1021000000000070880808887000001C222121222D
:102110001C0000E010080810E0000000312222112D
:102120000F00000000C0C0000000000000303000C0
:10213000000000000080000000000000806000003F
:102140000000000080402010080000010204081078
:102150002000404040404040400004040404040487
:102160000400000810204080000000201008040235
:102170000100007048080808F00000000030360137
:102180000000C030C828E810E000071827242314F6
:102190000B000000C038E0000000203C23020227B2
:1021A000382008F8888888700000203F20202011FF
:1021B0000E00C0300808080838000718202020103A
:1021C000080008F808080810E000203F2020201030
:1021D0000F0008F88888E8081000203F20202320FE
:1021E000180008F88888E8081000203F2000030045
:1021F0000000C03008080838000007182020221E00
:10220000020008F808000008F808203F2101012119
:102210003F20000808F8080800000020203F202088
:10222000000000000808F8080800C08080807F00D7
:10223000000008F888C028180800203F2001263830
:10224000200008F8080000000000203F2020202087
:10225000300008F8F800F8F80800203F003F003F81
:10226000200008F830C00008F808203F20000718B8
:102270003F00E01008080810E0000F102020201098
:102280000F0008F808080808F000203F21010101AC
:102290000000E01008080810E0000F18242438504F
:1022A0004F0008F8888888887000203F2000030CC1
:1022B00030200070880808083800003820212122CA
:1022C0001C00180808F8080818000000203F20002B
:1022D000000008F808000008F808001F202020204F
:1022E0001F000878880000C83808000007380E0171
:1022F0000000F80800F80008F800033C0700073C5D
:102300000300081868808068180820302C03032C0C
:1023100030200838C800C83808000000203F2000DE
:10232000000010080808C83808002038262120209E
:102330001800000000FE020202000000007F404082
:102340004000000C30C00000000000000001063812
:10235000C00000020202FE000000004040407F007A
:10236000000000000402020204000000000000005F
:10237000000000000000000000008080808080805D
:102380008080000202040000000000000000000045
:10239000000000008080808000000019242222229A
:1023A0003F2008F8008080000000003F112020112D
:1023B0000E000000008080800000000E1120202010
:1023C0001100000000808088F800000E112020100D
:1023D0003F200000808080800000001F22222222F7
:1023E0001300008080F0888888180020203F20207B
:1023F00000000000808080808000006B94949493A3
:10240000600008F8008080800000203F210000204C
:102410003F2000809898000000000020203F2020EE
:102420000000000000809898000000C08080807F3D
:10243000000008F8000080808000203F24022D303A
:102440002000000808F8000000000020203F2020A5
:1024500000008080808080808000203F20003F201E
:10246000003F8080008080800000203F210000200D
:102470003F200000808080800000001F202020205E
:102480001F00808000808000000080FFA1202011BC
:102490000E000000008080808000000E112020A02F
:1024A000FF80808080008080800020203F212000ED
:1024B00001000000808080808000003324242424D8
:1024C0001900008080E0808000000000001F2020B4
:1024D00000008080000000808000001F202020106D
:1024E0003F20808080000080808000010E30080640
:1024F000010080800080008080800F300C030C3051
:102500000F0000808000808080000020312E0E317E
:102510002000808080000080808080818E7018067E
:10252000010000808080808080000021302C2221EA
:10253000300000000000807C020200000000003F2C
:10254000404000000000FF00000000000000FF000D
:1025500000000002027C800000000040403F0000BC
:102560000000000601010202040400000000000057
:1025700000000000101012FE9010107E50505048C5
:1025800048444470400000020242413F00000041C4
:102590007E2A2A2A2A2A7F0000000040605048C66E
:1025A00060201010F0121C10907010181000002005
:1025B000242615945252402020130C1C33206040D6
:1025C0000000004040404454545454D4D454545413
:1025D0007CC0404040000020201010130E48447F73
:1025E0003F02040A123121202000000000000000F8
:1025F0000204C47870800000000000000000004069
:1026000020201008040301000001030C18103020E2
:102610002000008080FC84FC8480FC8484FC80801A
:10262000F80800FE020000403827203F40384740AD
:10263000403F00000F40407F00000000FC04649415
:102640008C442060584CC24C507020600000000048
:102650007F0408084720120E42C27F02020A12229B
:10266000000000004040404040404040FCF84840EE
:102670004040404040FCF84840404040607060406E
:1026800000000000000000F8F8100000FFF908004A
:102690000080F03E1E559190901010181810000008
:1026A000000000000000000703F0F0101717F0F41E
:1026B000121110F0F010101011FBF70000000000D4
:1026C0000000000010101010101F1F1010101F1F0E
:1026D0001010101F1F101010101F1F1010181810AE
:1026E0000000000000000020202060A0A02020109A
:1026F000305090901010101818F8684C0C0800001A
:102700000000000040E0700C080808090F0A98E873
:1027100068080F0B0808080E0B0988C8381C080049
:10272000000000000000000101010181C1713F377C
:1027300051911111111191D1713911010100000054
:1027400000000000002020104844464321202010B3
:1027500010190B0E060F09181010303030303000F1
:102760000000000000000000000000000000000069
:102770000000C0F0E0C0C0800000000000000000C9
:102780000000000000000000000000000000000049
:102790000000000000000000000000000000000039
:1027A000000000000000000000000000000080E0C9
:1027B000F8FE3F1F07030000000000002060E0E07B
:1027C00060606060606060606060E0E0E060606089
:1027D000606060606070787C78706040000000002D
:1027E00000000000000000000080C0F0781E0F0311
:1027F00001000000000000C0E0F8FF7F1E0C080090
:1028000000000000000000000000FFFFFF000000CB
:1028100000000000000000000000000000000000B8
:10282000000000000000040E3F3F1D1C0C0C0E06B3
:102830000686C6E67A3E1F0F030100000000000076
:1028400000000000000000000000FFFFFF0000008B
:102850000000000000000000000000000000000078
:102860000000000000000000000080C0E070381C84
:102870000F8783818080C0C0C0404060202000005E
:1028800000000000000000000000FFFFFF0000004B
:102890000000000000000000000000000000000038
:1028A0000000000000000000020F3F1F0E07070796
:1028B000030301010101000000000000000080800E
:1028C00000000000000000000000FFFFFF0000000B
:1028D00000000000000000000000000000000000F8
:1028E0000000000000000000E0E0E0E0F0F07070A8
:1028F0003838181C1C0C0C0646C2C3C3C1C1C0C06A
:10290000C0C0C0C0C0C0C0C0C0C0FFFFFFC0C0C00A
:10291000C0C0C0C0C0C0C0E0E0F0F8F0E0C08000BF
:1029200000000000000000000001010100000000A4
:102930000000000000000000000001010000000095
:102940000000000000000000000000000000000087
:102950000000000000000000000000000000000077
:102960000000000000000000000000000000000067
:10297000000000000000FCF8F8F03000000000004B
:102980000000000000000000FCF8F8F0300000003B
:102990000000000000000000808000000000000037
:1029A000000000000000040C1C0C0C0C0C0C0C0CA7
:1029B0000C0C0C0C0C0CFFFFFFFF0C0C0C0C0C0C8B
:1029C0000C0C0C0C0C0C0C0CFFFFFF7F0C0C0C0CFB
:1029D0000C0C0C0C0C0C0E0F0F0F0F0E0C08000043
:1029E00000000000000000000000000000F0E0E037
:1029F000C0400000000007F9F8F03020000000009F
:102A0000000000C0FCFEFCBC998880808080808033
:102A10008080C0C0E0F0E0C0800000000000000046
:102A200000000000000000000000000000FFFFFFA9
:102A300000000000000000FFFFFF00000000000099
:102A4000C0F07E3F0F0301010911317161E1E1C165
:102A5000C1818101010101010101000000000000AC
:102A6000000000000000000000000000201F1F8F79
:102A7000800000000000403F3F1F100000180C07BE
:102A8000030000000000000000000000000001033F
:102A900087CFBF3F000000000000000000000000E2
:102AA000000000000000000000000000000000FF27
:102AB000FFFFFF03030303030303FFFFFFFF030302
:102AC0000303030303FFFFFF0303030303030303E2
:102AD000FFFFFF07020000000000000000000000F0
:102AE000000000000000000000000000000000FFE7
:102AF000FFFFFF00000000000000FFFFFFFF0000DD
:102B00000000000000FFFFFF0000000000000000C8
:102B1000FFFFFF0000000080C0E0E0C08000000078
:102B20000000000000010307030303030303030382
:102B30000303030303030303030303030303030365
:102B40000303030303030303030303030303030355
:102B50000303030303030303030303030303020049
:102B60000000000000000000000000000000000065
:102B700000000000000000FCF8F8F0300000000049
:102B8000000000000000000004F8F8F03000000031
:102B90000000000000000000000000000000000035
:102BA00000000000000000000000040C1C0C0C0CD5
:102BB0000C0C0C0C0C0C0CFFFFFFFF0C0C0C0C0C89
:102BC0000C0C0C0C0C0C0C0C0CFFFFFF0C0C0C0C6C
:102BD0000C0C0C0C0C0E0F0F0E0C0800000000006B
:102BE0000000000010307070303030303030303045
:102BF000303030303030303F3F3F3F303030303099
:102C0000F0F0F0F030303030303F3F3F3030303097
:102C10003030303030303030383C3E3C38302000BE
:102C200000000000000000000000000000000000A4
:102C3000FCFCF8181818181818181818181818186C
:102C4000FFFFFFFF18181818181818181818181868
:102C500018F8FCFC38100000000000000000000024
:102C60000000000000000000000000000000000064
:102C7000FFFFFF30303030303030303030303030E7
:102C8000FFFFFFFF30303030303030303030303008
:102C900030FFFFFF00000000000000000000000007
:102CA0000000000000000000000000000000000024
:102CB000FFFFFF606060606060E0606060606060B7
:102CC0007F7F7F7F60606060606060606060606088
:102CD00060FFFFFF00000000000000000000000097
:102CE00000000000000000000000000000000000E4
:102CF0008381C1E0F078783C3E1F0F0E0C08000085
:102D000000000000000000020206040C1C18383805
:102D100070F1F1E0E0C0C0800000000000000000A1
:102D200000000000000000203010180C0C0E0607F8
:102D3000030301010000000000000000000000008B
:102D40000000000000000000000000000000000083
:102D50000000000103070F1F1F1E000000000000FD
:102D600000000000842D0008000000201400000076
:102D7000C61E0008982D000814000020E40400007E
:102D8000D61E000801000000100000000000000036
:082D90000024F4000000000023
:04000005080000ED02
:00000001FF
